{
  "_format": "hh-sol-artifact-1",
  "contractName": "Raffle",
  "sourceName": "contracts/Raffle.sol",
  "abi": [
    {
      "inputs": [
        {
          "internalType": "address",
          "name": "vrfCoordinatorV2",
          "type": "address"
        },
        {
          "internalType": "uint256",
          "name": "entranceFee",
          "type": "uint256"
        },
        {
          "internalType": "bytes32",
          "name": "gasLane",
          "type": "bytes32"
        },
        {
          "internalType": "uint64",
          "name": "subscriptionId",
          "type": "uint64"
        },
        {
          "internalType": "uint32",
          "name": "callbackgasLimit",
          "type": "uint32"
        },
        {
          "internalType": "uint256",
          "name": "interval",
          "type": "uint256"
        }
      ],
      "stateMutability": "nonpayable",
      "type": "constructor"
    },
    {
      "inputs": [
        {
          "internalType": "address",
          "name": "have",
          "type": "address"
        },
        {
          "internalType": "address",
          "name": "want",
          "type": "address"
        }
      ],
      "name": "OnlyCoordinatorCanFulfill",
      "type": "error"
    },
    {
      "inputs": [],
      "name": "Raffle_NotOpen",
      "type": "error"
    },
    {
      "inputs": [],
      "name": "Raffle_TransferFailed",
      "type": "error"
    },
    {
      "inputs": [
        {
          "internalType": "uint256",
          "name": "currentBalance",
          "type": "uint256"
        },
        {
          "internalType": "uint256",
          "name": "numPlayers",
          "type": "uint256"
        },
        {
          "internalType": "uint256",
          "name": "raffleState",
          "type": "uint256"
        }
      ],
      "name": "Raffle_UpkeepNotNeeded",
      "type": "error"
    },
    {
      "inputs": [],
      "name": "Raffle__NotEnoughETHEntered",
      "type": "error"
    },
    {
      "anonymous": false,
      "inputs": [
        {
          "indexed": true,
          "internalType": "address",
          "name": "player",
          "type": "address"
        }
      ],
      "name": "RaffleEnter",
      "type": "event"
    },
    {
      "anonymous": false,
      "inputs": [
        {
          "indexed": true,
          "internalType": "uint256",
          "name": "requestId",
          "type": "uint256"
        }
      ],
      "name": "RequestedRaffeWinner",
      "type": "event"
    },
    {
      "anonymous": false,
      "inputs": [
        {
          "indexed": true,
          "internalType": "address",
          "name": "winner",
          "type": "address"
        }
      ],
      "name": "WinnerPicked",
      "type": "event"
    },
    {
      "inputs": [
        {
          "internalType": "bytes",
          "name": "",
          "type": "bytes"
        }
      ],
      "name": "checkUpkeep",
      "outputs": [
        {
          "internalType": "bool",
          "name": "upkeepNeeded",
          "type": "bool"
        },
        {
          "internalType": "bytes",
          "name": "",
          "type": "bytes"
        }
      ],
      "stateMutability": "nonpayable",
      "type": "function"
    },
    {
      "inputs": [],
      "name": "enterRaffle",
      "outputs": [],
      "stateMutability": "payable",
      "type": "function"
    },
    {
      "inputs": [],
      "name": "getEntranceFee",
      "outputs": [
        {
          "internalType": "uint256",
          "name": "",
          "type": "uint256"
        }
      ],
      "stateMutability": "view",
      "type": "function"
    },
    {
      "inputs": [],
      "name": "getLastTimeStamp",
      "outputs": [
        {
          "internalType": "uint256",
          "name": "",
          "type": "uint256"
        }
      ],
      "stateMutability": "view",
      "type": "function"
    },
    {
      "inputs": [],
      "name": "getNumWords",
      "outputs": [
        {
          "internalType": "uint256",
          "name": "",
          "type": "uint256"
        }
      ],
      "stateMutability": "pure",
      "type": "function"
    },
    {
      "inputs": [],
      "name": "getNumberOfPlayers",
      "outputs": [
        {
          "internalType": "uint256",
          "name": "",
          "type": "uint256"
        }
      ],
      "stateMutability": "view",
      "type": "function"
    },
    {
      "inputs": [
        {
          "internalType": "uint256",
          "name": "index",
          "type": "uint256"
        }
      ],
      "name": "getPlayer",
      "outputs": [
        {
          "internalType": "address",
          "name": "",
          "type": "address"
        }
      ],
      "stateMutability": "view",
      "type": "function"
    },
    {
      "inputs": [],
      "name": "getRaffleState",
      "outputs": [
        {
          "internalType": "enum Raffle.RaffleState",
          "name": "",
          "type": "uint8"
        }
      ],
      "stateMutability": "view",
      "type": "function"
    },
    {
      "inputs": [],
      "name": "getRecentWinner",
      "outputs": [
        {
          "internalType": "address",
          "name": "",
          "type": "address"
        }
      ],
      "stateMutability": "view",
      "type": "function"
    },
    {
      "inputs": [],
      "name": "getRequestConfirmations",
      "outputs": [
        {
          "internalType": "uint256",
          "name": "",
          "type": "uint256"
        }
      ],
      "stateMutability": "pure",
      "type": "function"
    },
    {
      "inputs": [
        {
          "internalType": "bytes",
          "name": "",
          "type": "bytes"
        }
      ],
      "name": "performUpkeep",
      "outputs": [],
      "stateMutability": "nonpayable",
      "type": "function"
    },
    {
      "inputs": [
        {
          "internalType": "uint256",
          "name": "requestId",
          "type": "uint256"
        },
        {
          "internalType": "uint256[]",
          "name": "randomWords",
          "type": "uint256[]"
        }
      ],
      "name": "rawFulfillRandomWords",
      "outputs": [],
      "stateMutability": "nonpayable",
      "type": "function"
    }
  ],
  "bytecode": "0x61016060405234801561001157600080fd5b506040516116b03803806116b083398181016040528101906100339190610270565b858073ffffffffffffffffffffffffffffffffffffffff1660808173ffffffffffffffffffffffffffffffffffffffff1681525050508460a081815250508573ffffffffffffffffffffffffffffffffffffffff1660c08173ffffffffffffffffffffffffffffffffffffffff16815250508360e081815250508267ffffffffffffffff166101008167ffffffffffffffff16815250508163ffffffff166101208163ffffffff16815250506000600160146101000a81548160ff02191690836001811115610105576101046102fd565b5b02179055504260028190555080610140818152505050505050505061032c565b600080fd5b600073ffffffffffffffffffffffffffffffffffffffff82169050919050565b60006101558261012a565b9050919050565b6101658161014a565b811461017057600080fd5b50565b6000815190506101828161015c565b92915050565b6000819050919050565b61019b81610188565b81146101a657600080fd5b50565b6000815190506101b881610192565b92915050565b6000819050919050565b6101d1816101be565b81146101dc57600080fd5b50565b6000815190506101ee816101c8565b92915050565b600067ffffffffffffffff82169050919050565b610211816101f4565b811461021c57600080fd5b50565b60008151905061022e81610208565b92915050565b600063ffffffff82169050919050565b61024d81610234565b811461025857600080fd5b50565b60008151905061026a81610244565b92915050565b60008060008060008060c0878903121561028d5761028c610125565b5b600061029b89828a01610173565b96505060206102ac89828a016101a9565b95505060406102bd89828a016101df565b94505060606102ce89828a0161021f565b93505060806102df89828a0161025b565b92505060a06102f089828a016101a9565b9150509295509295509295565b7f4e487b7100000000000000000000000000000000000000000000000000000000600052602160045260246000fd5b60805160a05160c05160e05161010051610120516101405161131c6103946000396000610796015260006106550152600061063201526000610611015260006105d50152600081816102b401526103b10152600081816102f10152610345015261131c6000f3fe6080604052600436106100a75760003560e01c806353a2c19a1161006457806353a2c19a146101895780635f1b0fd8146101b45780636e04ff0d146101df578063c1c244e81461021d578063e55ae4e814610248578063fd6673f514610285576100a7565b806309bc33a7146100ac578063115cbaf5146100d75780631fe543e3146101025780632cfcc5391461012b5780634585e33b14610135578063473f1ddc1461015e575b600080fd5b3480156100b857600080fd5b506100c16102b0565b6040516100ce9190610b4e565b60405180910390f35b3480156100e357600080fd5b506100ec6102d8565b6040516100f99190610be0565b60405180910390f35b34801561010e57600080fd5b5061012960048036038101906101249190610d94565b6102ef565b005b6101336103af565b005b34801561014157600080fd5b5061015c60048036038101906101579190610ea5565b61051e565b005b34801561016a57600080fd5b5061017361070d565b6040516101809190610f2f565b60405180910390f35b34801561019557600080fd5b5061019e610737565b6040516101ab9190610b4e565b60405180910390f35b3480156101c057600080fd5b506101c9610746565b6040516101d69190610b4e565b60405180910390f35b3480156101eb57600080fd5b5061020660048036038101906102019190610ea5565b610753565b604051610214929190610fe4565b60405180910390f35b34801561022957600080fd5b50610232610800565b60405161023f9190610b4e565b60405180910390f35b34801561025457600080fd5b5061026f600480360381019061026a9190611014565b61080a565b60405161027c9190610f2f565b60405180910390f35b34801561029157600080fd5b5061029a610851565b6040516102a79190610b4e565b60405180910390f35b60007f0000000000000000000000000000000000000000000000000000000000000000905090565b6000600160149054906101000a900460ff16905090565b7f000000000000000000000000000000000000000000000000000000000000000073ffffffffffffffffffffffffffffffffffffffff163373ffffffffffffffffffffffffffffffffffffffff16146103a157337f00000000000000000000000000000000000000000000000000000000000000006040517f1cf993f4000000000000000000000000000000000000000000000000000000008152600401610398929190611041565b60405180910390fd5b6103ab828261085d565b5050565b7f0000000000000000000000000000000000000000000000000000000000000000341015610409576040517fbd4e069500000000000000000000000000000000000000000000000000000000815260040160405180910390fd5b6000600181111561041d5761041c610b69565b5b600160149054906101000a900460ff16600181111561043f5761043e610b69565b5b14610476576040517fd6e19a8d00000000000000000000000000000000000000000000000000000000815260040160405180910390fd5b6000339080600181540180825580915050600190039060005260206000200160009091909190916101000a81548173ffffffffffffffffffffffffffffffffffffffff021916908373ffffffffffffffffffffffffffffffffffffffff1602179055503373ffffffffffffffffffffffffffffffffffffffff167f0805e1d667bddb8a95f0f09880cf94f403fb596ce79928d9f29b74203ba284d460405160405180910390a2565b600061053860405180602001604052806000815250610753565b509050806105a75747600080549050600160149054906101000a900460ff16600181111561056957610568610b69565b5b6040517fe059521b00000000000000000000000000000000000000000000000000000000815260040161059e9392919061106a565b60405180910390fd5b60018060146101000a81548160ff021916908360018111156105cc576105cb610b69565b5b021790555060007f000000000000000000000000000000000000000000000000000000000000000073ffffffffffffffffffffffffffffffffffffffff16635d3b1d307f00000000000000000000000000000000000000000000000000000000000000007f000000000000000000000000000000000000000000000000000000000000000060037f000000000000000000000000000000000000000000000000000000000000000060016040518663ffffffff1660e01b8152600401610696959493929190611119565b6020604051808303816000875af11580156106b5573d6000803e3d6000fd5b505050506040513d601f19601f820116820180604052508101906106d99190611181565b9050807f9f1ed633b80754d60fd8b36137a9d4080110703e220c89eb75f20fb35f2c225060405160405180910390a2505050565b6000600160009054906101000a900473ffffffffffffffffffffffffffffffffffffffff16905090565b6000600163ffffffff16905090565b6000600361ffff16905090565b600060606000600160149054906101000a900460ff16600181111561077b5761077a610b69565b5b6000600181111561078f5761078e610b69565b5b14905060007f0000000000000000000000000000000000000000000000000000000000000000600254426107c391906111dd565b119050600080600080549050119050600080471190508380156107e35750825b80156107ec5750815b80156107f55750805b955050505050915091565b6000600254905090565b600080828154811061081f5761081e611211565b5b9060005260206000200160009054906101000a900473ffffffffffffffffffffffffffffffffffffffff169050919050565b60008080549050905090565b600080805490508260008151811061087857610877611211565b5b602002602001015161088a919061126f565b905060008082815481106108a1576108a0611211565b5b9060005260206000200160009054906101000a900473ffffffffffffffffffffffffffffffffffffffff16905080600160006101000a81548173ffffffffffffffffffffffffffffffffffffffff021916908373ffffffffffffffffffffffffffffffffffffffff1602179055506000600160146101000a81548160ff0219169083600181111561093557610934610b69565b5b0217905550600067ffffffffffffffff81111561095557610954610c51565b5b6040519080825280602002602001820160405280156109835781602001602082028036833780820191505090505b5060009080519060200190610999929190610a8e565b504260028190555060008173ffffffffffffffffffffffffffffffffffffffff16476040516109c7906112d1565b60006040518083038185875af1925050503d8060008114610a04576040519150601f19603f3d011682016040523d82523d6000602084013e610a09565b606091505b5050905080610a44576040517fba31c4f300000000000000000000000000000000000000000000000000000000815260040160405180910390fd5b8173ffffffffffffffffffffffffffffffffffffffff167f5b690ec4a06fe979403046eaeea5b3ce38524683c3001f662c8b5a829632f7df60405160405180910390a25050505050565b828054828255906000526020600020908101928215610b07579160200282015b82811115610b065782518260006101000a81548173ffffffffffffffffffffffffffffffffffffffff021916908373ffffffffffffffffffffffffffffffffffffffff16021790555091602001919060010190610aae565b5b509050610b149190610b18565b5090565b5b80821115610b31576000816000905550600101610b19565b5090565b6000819050919050565b610b4881610b35565b82525050565b6000602082019050610b636000830184610b3f565b92915050565b7f4e487b7100000000000000000000000000000000000000000000000000000000600052602160045260246000fd5b60028110610ba957610ba8610b69565b5b50565b6000819050610bba82610b98565b919050565b6000610bca82610bac565b9050919050565b610bda81610bbf565b82525050565b6000602082019050610bf56000830184610bd1565b92915050565b6000604051905090565b600080fd5b600080fd5b610c1881610b35565b8114610c2357600080fd5b50565b600081359050610c3581610c0f565b92915050565b600080fd5b6000601f19601f8301169050919050565b7f4e487b7100000000000000000000000000000000000000000000000000000000600052604160045260246000fd5b610c8982610c40565b810181811067ffffffffffffffff82111715610ca857610ca7610c51565b5b80604052505050565b6000610cbb610bfb565b9050610cc78282610c80565b919050565b600067ffffffffffffffff821115610ce757610ce6610c51565b5b602082029050602081019050919050565b600080fd5b6000610d10610d0b84610ccc565b610cb1565b90508083825260208201905060208402830185811115610d3357610d32610cf8565b5b835b81811015610d5c5780610d488882610c26565b845260208401935050602081019050610d35565b5050509392505050565b600082601f830112610d7b57610d7a610c3b565b5b8135610d8b848260208601610cfd565b91505092915050565b60008060408385031215610dab57610daa610c05565b5b6000610db985828601610c26565b925050602083013567ffffffffffffffff811115610dda57610dd9610c0a565b5b610de685828601610d66565b9150509250929050565b600080fd5b600067ffffffffffffffff821115610e1057610e0f610c51565b5b610e1982610c40565b9050602081019050919050565b82818337600083830152505050565b6000610e48610e4384610df5565b610cb1565b905082815260208101848484011115610e6457610e63610df0565b5b610e6f848285610e26565b509392505050565b600082601f830112610e8c57610e8b610c3b565b5b8135610e9c848260208601610e35565b91505092915050565b600060208284031215610ebb57610eba610c05565b5b600082013567ffffffffffffffff811115610ed957610ed8610c0a565b5b610ee584828501610e77565b91505092915050565b600073ffffffffffffffffffffffffffffffffffffffff82169050919050565b6000610f1982610eee565b9050919050565b610f2981610f0e565b82525050565b6000602082019050610f446000830184610f20565b92915050565b60008115159050919050565b610f5f81610f4a565b82525050565b600081519050919050565b600082825260208201905092915050565b60005b83811015610f9f578082015181840152602081019050610f84565b60008484015250505050565b6000610fb682610f65565b610fc08185610f70565b9350610fd0818560208601610f81565b610fd981610c40565b840191505092915050565b6000604082019050610ff96000830185610f56565b818103602083015261100b8184610fab565b90509392505050565b60006020828403121561102a57611029610c05565b5b600061103884828501610c26565b91505092915050565b60006040820190506110566000830185610f20565b6110636020830184610f20565b9392505050565b600060608201905061107f6000830186610b3f565b61108c6020830185610b3f565b6110996040830184610b3f565b949350505050565b6000819050919050565b6110b4816110a1565b82525050565b600067ffffffffffffffff82169050919050565b6110d7816110ba565b82525050565b600061ffff82169050919050565b6110f4816110dd565b82525050565b600063ffffffff82169050919050565b611113816110fa565b82525050565b600060a08201905061112e60008301886110ab565b61113b60208301876110ce565b61114860408301866110eb565b611155606083018561110a565b611162608083018461110a565b9695505050505050565b60008151905061117b81610c0f565b92915050565b60006020828403121561119757611196610c05565b5b60006111a58482850161116c565b91505092915050565b7f4e487b7100000000000000000000000000000000000000000000000000000000600052601160045260246000fd5b60006111e882610b35565b91506111f383610b35565b925082820390508181111561120b5761120a6111ae565b5b92915050565b7f4e487b7100000000000000000000000000000000000000000000000000000000600052603260045260246000fd5b7f4e487b7100000000000000000000000000000000000000000000000000000000600052601260045260246000fd5b600061127a82610b35565b915061128583610b35565b92508261129557611294611240565b5b828206905092915050565b600081905092915050565b50565b60006112bb6000836112a0565b91506112c6826112ab565b600082019050919050565b60006112dc826112ae565b915081905091905056fea26469706673582212207903e65294339062c0d5cf0cfbe3d1c1beb42573e90eba85c702b061a8d05c8364736f6c634300081b0033",
  "linkReferences": {},
  "deployedLinkReferences": {}
}