{
  "_format": "hh-sol-artifact-1",
  "contractName": "Raffle",
  "sourceName": "contracts/Raffle.sol",
  "abi": [
    {
      "inputs": [
        {
          "internalType": "address",
          "name": "vrfCoordinatorV2",
          "type": "address"
        },
        {
          "internalType": "uint256",
          "name": "entranceFee",
          "type": "uint256"
        },
        {
          "internalType": "bytes32",
          "name": "gasLane",
          "type": "bytes32"
        },
        {
          "internalType": "uint64",
          "name": "subscriptionId",
          "type": "uint64"
        },
        {
          "internalType": "uint32",
          "name": "callbackgasLimit",
          "type": "uint32"
        },
        {
          "internalType": "uint256",
          "name": "interval",
          "type": "uint256"
        }
      ],
      "stateMutability": "nonpayable",
      "type": "constructor"
    },
    {
      "inputs": [
        {
          "internalType": "address",
          "name": "have",
          "type": "address"
        },
        {
          "internalType": "address",
          "name": "want",
          "type": "address"
        }
      ],
      "name": "OnlyCoordinatorCanFulfill",
      "type": "error"
    },
    {
      "inputs": [],
      "name": "Raffle_NotOpen",
      "type": "error"
    },
    {
      "inputs": [],
      "name": "Raffle_TransferFailed",
      "type": "error"
    },
    {
      "inputs": [
        {
          "internalType": "uint256",
          "name": "currentBalance",
          "type": "uint256"
        },
        {
          "internalType": "uint256",
          "name": "numPlayers",
          "type": "uint256"
        },
        {
          "internalType": "uint256",
          "name": "raffleState",
          "type": "uint256"
        }
      ],
      "name": "Raffle_UpkeepNotNeeded",
      "type": "error"
    },
    {
      "inputs": [],
      "name": "Raffle__NotEnoughETHEntered",
      "type": "error"
    },
    {
      "anonymous": false,
      "inputs": [
        {
          "indexed": true,
          "internalType": "address",
          "name": "player",
          "type": "address"
        }
      ],
      "name": "RaffleEnter",
      "type": "event"
    },
    {
      "anonymous": false,
      "inputs": [
        {
          "indexed": true,
          "internalType": "uint256",
          "name": "requestId",
          "type": "uint256"
        }
      ],
      "name": "RequestedRaffeWinner",
      "type": "event"
    },
    {
      "anonymous": false,
      "inputs": [
        {
          "indexed": true,
          "internalType": "address",
          "name": "winner",
          "type": "address"
        }
      ],
      "name": "WinnerPicked",
      "type": "event"
    },
    {
      "inputs": [
        {
          "internalType": "bytes",
          "name": "",
          "type": "bytes"
        }
      ],
      "name": "checkUpkeep",
      "outputs": [
        {
          "internalType": "bool",
          "name": "upkeepNeeded",
          "type": "bool"
        },
        {
          "internalType": "bytes",
          "name": "",
          "type": "bytes"
        }
      ],
      "stateMutability": "nonpayable",
      "type": "function"
    },
    {
      "inputs": [],
      "name": "enterRaffle",
      "outputs": [],
      "stateMutability": "payable",
      "type": "function"
    },
    {
      "inputs": [],
      "name": "getEntranceFee",
      "outputs": [
        {
          "internalType": "uint256",
          "name": "",
          "type": "uint256"
        }
      ],
      "stateMutability": "view",
      "type": "function"
    },
    {
      "inputs": [],
      "name": "getNumWords",
      "outputs": [
        {
          "internalType": "uint256",
          "name": "",
          "type": "uint256"
        }
      ],
      "stateMutability": "pure",
      "type": "function"
    },
    {
      "inputs": [
        {
          "internalType": "uint256",
          "name": "index",
          "type": "uint256"
        }
      ],
      "name": "getPlayer",
      "outputs": [
        {
          "internalType": "address",
          "name": "",
          "type": "address"
        }
      ],
      "stateMutability": "view",
      "type": "function"
    },
    {
      "inputs": [],
      "name": "getRaffleState",
      "outputs": [
        {
          "internalType": "enum Raffle.RaffleState",
          "name": "",
          "type": "uint8"
        }
      ],
      "stateMutability": "view",
      "type": "function"
    },
    {
      "inputs": [],
      "name": "getRecentWinner",
      "outputs": [
        {
          "internalType": "address",
          "name": "",
          "type": "address"
        }
      ],
      "stateMutability": "view",
      "type": "function"
    },
    {
      "inputs": [
        {
          "internalType": "bytes",
          "name": "",
          "type": "bytes"
        }
      ],
      "name": "performUpkeep",
      "outputs": [],
      "stateMutability": "nonpayable",
      "type": "function"
    },
    {
      "inputs": [
        {
          "internalType": "uint256",
          "name": "requestId",
          "type": "uint256"
        },
        {
          "internalType": "uint256[]",
          "name": "randomWords",
          "type": "uint256[]"
        }
      ],
      "name": "rawFulfillRandomWords",
      "outputs": [],
      "stateMutability": "nonpayable",
      "type": "function"
    }
  ],
  "bytecode": "0x61016060405234801561001157600080fd5b506040516115eb3803806115eb83398181016040528101906100339190610270565b858073ffffffffffffffffffffffffffffffffffffffff1660808173ffffffffffffffffffffffffffffffffffffffff1681525050508460a081815250508573ffffffffffffffffffffffffffffffffffffffff1660c08173ffffffffffffffffffffffffffffffffffffffff16815250508360e081815250508267ffffffffffffffff166101008167ffffffffffffffff16815250508163ffffffff166101208163ffffffff16815250506000600160146101000a81548160ff02191690836001811115610105576101046102fd565b5b02179055504260028190555080610140818152505050505050505061032c565b600080fd5b600073ffffffffffffffffffffffffffffffffffffffff82169050919050565b60006101558261012a565b9050919050565b6101658161014a565b811461017057600080fd5b50565b6000815190506101828161015c565b92915050565b6000819050919050565b61019b81610188565b81146101a657600080fd5b50565b6000815190506101b881610192565b92915050565b6000819050919050565b6101d1816101be565b81146101dc57600080fd5b50565b6000815190506101ee816101c8565b92915050565b600067ffffffffffffffff82169050919050565b610211816101f4565b811461021c57600080fd5b50565b60008151905061022e81610208565b92915050565b600063ffffffff82169050919050565b61024d81610234565b811461025857600080fd5b50565b60008151905061026a81610244565b92915050565b60008060008060008060c0878903121561028d5761028c610125565b5b600061029b89828a01610173565b96505060206102ac89828a016101a9565b95505060406102bd89828a016101df565b94505060606102ce89828a0161021f565b93505060806102df89828a0161025b565b92505060a06102f089828a016101a9565b9150509295509295509295565b7f4e487b7100000000000000000000000000000000000000000000000000000000600052602160045260246000fd5b60805160a05160c05160e05161010051610120516101405161125761039460003960006106e7015260006105b3015260006105900152600061056f01526000610533015260008181610212015261030f01526000818161024f01526102a301526112576000f3fe6080604052600436106100865760003560e01c80634585e33b116100595780634585e33b14610114578063473f1ddc1461013d57806353a2c19a146101685780636e04ff0d14610193578063e55ae4e8146101d157610086565b806309bc33a71461008b578063115cbaf5146100b65780631fe543e3146100e15780632cfcc5391461010a575b600080fd5b34801561009757600080fd5b506100a061020e565b6040516100ad9190610a89565b60405180910390f35b3480156100c257600080fd5b506100cb610236565b6040516100d89190610b1b565b60405180910390f35b3480156100ed57600080fd5b5061010860048036038101906101039190610ccf565b61024d565b005b61011261030d565b005b34801561012057600080fd5b5061013b60048036038101906101369190610de0565b61047c565b005b34801561014957600080fd5b5061015261066b565b60405161015f9190610e6a565b60405180910390f35b34801561017457600080fd5b5061017d610695565b60405161018a9190610a89565b60405180910390f35b34801561019f57600080fd5b506101ba60048036038101906101b59190610de0565b6106a4565b6040516101c8929190610f1f565b60405180910390f35b3480156101dd57600080fd5b506101f860048036038101906101f39190610f4f565b610751565b6040516102059190610e6a565b60405180910390f35b60007f0000000000000000000000000000000000000000000000000000000000000000905090565b6000600160149054906101000a900460ff16905090565b7f000000000000000000000000000000000000000000000000000000000000000073ffffffffffffffffffffffffffffffffffffffff163373ffffffffffffffffffffffffffffffffffffffff16146102ff57337f00000000000000000000000000000000000000000000000000000000000000006040517f1cf993f40000000000000000000000000000000000000000000000000000000081526004016102f6929190610f7c565b60405180910390fd5b6103098282610798565b5050565b7f0000000000000000000000000000000000000000000000000000000000000000341015610367576040517fbd4e069500000000000000000000000000000000000000000000000000000000815260040160405180910390fd5b6000600181111561037b5761037a610aa4565b5b600160149054906101000a900460ff16600181111561039d5761039c610aa4565b5b146103d4576040517fd6e19a8d00000000000000000000000000000000000000000000000000000000815260040160405180910390fd5b6000339080600181540180825580915050600190039060005260206000200160009091909190916101000a81548173ffffffffffffffffffffffffffffffffffffffff021916908373ffffffffffffffffffffffffffffffffffffffff1602179055503373ffffffffffffffffffffffffffffffffffffffff167f0805e1d667bddb8a95f0f09880cf94f403fb596ce79928d9f29b74203ba284d460405160405180910390a2565b6000610496604051806020016040528060008152506106a4565b509050806105055747600080549050600160149054906101000a900460ff1660018111156104c7576104c6610aa4565b5b6040517fe059521b0000000000000000000000000000000000000000000000000000000081526004016104fc93929190610fa5565b60405180910390fd5b60018060146101000a81548160ff0219169083600181111561052a57610529610aa4565b5b021790555060007f000000000000000000000000000000000000000000000000000000000000000073ffffffffffffffffffffffffffffffffffffffff16635d3b1d307f00000000000000000000000000000000000000000000000000000000000000007f000000000000000000000000000000000000000000000000000000000000000060037f000000000000000000000000000000000000000000000000000000000000000060016040518663ffffffff1660e01b81526004016105f4959493929190611054565b6020604051808303816000875af1158015610613573d6000803e3d6000fd5b505050506040513d601f19601f8201168201806040525081019061063791906110bc565b9050807f9f1ed633b80754d60fd8b36137a9d4080110703e220c89eb75f20fb35f2c225060405160405180910390a2505050565b6000600160009054906101000a900473ffffffffffffffffffffffffffffffffffffffff16905090565b6000600163ffffffff16905090565b600060606000600160149054906101000a900460ff1660018111156106cc576106cb610aa4565b5b600060018111156106e0576106df610aa4565b5b14905060007f0000000000000000000000000000000000000000000000000000000000000000600254426107149190611118565b119050600080600080549050119050600080471190508380156107345750825b801561073d5750815b80156107465750805b955050505050915091565b60008082815481106107665761076561114c565b5b9060005260206000200160009054906101000a900473ffffffffffffffffffffffffffffffffffffffff169050919050565b60008080549050826000815181106107b3576107b261114c565b5b60200260200101516107c591906111aa565b905060008082815481106107dc576107db61114c565b5b9060005260206000200160009054906101000a900473ffffffffffffffffffffffffffffffffffffffff16905080600160006101000a81548173ffffffffffffffffffffffffffffffffffffffff021916908373ffffffffffffffffffffffffffffffffffffffff1602179055506000600160146101000a81548160ff021916908360018111156108705761086f610aa4565b5b0217905550600067ffffffffffffffff8111156108905761088f610b8c565b5b6040519080825280602002602001820160405280156108be5781602001602082028036833780820191505090505b50600090805190602001906108d49291906109c9565b504260028190555060008173ffffffffffffffffffffffffffffffffffffffff16476040516109029061120c565b60006040518083038185875af1925050503d806000811461093f576040519150601f19603f3d011682016040523d82523d6000602084013e610944565b606091505b505090508061097f576040517fba31c4f300000000000000000000000000000000000000000000000000000000815260040160405180910390fd5b8173ffffffffffffffffffffffffffffffffffffffff167f5b690ec4a06fe979403046eaeea5b3ce38524683c3001f662c8b5a829632f7df60405160405180910390a25050505050565b828054828255906000526020600020908101928215610a42579160200282015b82811115610a415782518260006101000a81548173ffffffffffffffffffffffffffffffffffffffff021916908373ffffffffffffffffffffffffffffffffffffffff160217905550916020019190600101906109e9565b5b509050610a4f9190610a53565b5090565b5b80821115610a6c576000816000905550600101610a54565b5090565b6000819050919050565b610a8381610a70565b82525050565b6000602082019050610a9e6000830184610a7a565b92915050565b7f4e487b7100000000000000000000000000000000000000000000000000000000600052602160045260246000fd5b60028110610ae457610ae3610aa4565b5b50565b6000819050610af582610ad3565b919050565b6000610b0582610ae7565b9050919050565b610b1581610afa565b82525050565b6000602082019050610b306000830184610b0c565b92915050565b6000604051905090565b600080fd5b600080fd5b610b5381610a70565b8114610b5e57600080fd5b50565b600081359050610b7081610b4a565b92915050565b600080fd5b6000601f19601f8301169050919050565b7f4e487b7100000000000000000000000000000000000000000000000000000000600052604160045260246000fd5b610bc482610b7b565b810181811067ffffffffffffffff82111715610be357610be2610b8c565b5b80604052505050565b6000610bf6610b36565b9050610c028282610bbb565b919050565b600067ffffffffffffffff821115610c2257610c21610b8c565b5b602082029050602081019050919050565b600080fd5b6000610c4b610c4684610c07565b610bec565b90508083825260208201905060208402830185811115610c6e57610c6d610c33565b5b835b81811015610c975780610c838882610b61565b845260208401935050602081019050610c70565b5050509392505050565b600082601f830112610cb657610cb5610b76565b5b8135610cc6848260208601610c38565b91505092915050565b60008060408385031215610ce657610ce5610b40565b5b6000610cf485828601610b61565b925050602083013567ffffffffffffffff811115610d1557610d14610b45565b5b610d2185828601610ca1565b9150509250929050565b600080fd5b600067ffffffffffffffff821115610d4b57610d4a610b8c565b5b610d5482610b7b565b9050602081019050919050565b82818337600083830152505050565b6000610d83610d7e84610d30565b610bec565b905082815260208101848484011115610d9f57610d9e610d2b565b5b610daa848285610d61565b509392505050565b600082601f830112610dc757610dc6610b76565b5b8135610dd7848260208601610d70565b91505092915050565b600060208284031215610df657610df5610b40565b5b600082013567ffffffffffffffff811115610e1457610e13610b45565b5b610e2084828501610db2565b91505092915050565b600073ffffffffffffffffffffffffffffffffffffffff82169050919050565b6000610e5482610e29565b9050919050565b610e6481610e49565b82525050565b6000602082019050610e7f6000830184610e5b565b92915050565b60008115159050919050565b610e9a81610e85565b82525050565b600081519050919050565b600082825260208201905092915050565b60005b83811015610eda578082015181840152602081019050610ebf565b60008484015250505050565b6000610ef182610ea0565b610efb8185610eab565b9350610f0b818560208601610ebc565b610f1481610b7b565b840191505092915050565b6000604082019050610f346000830185610e91565b8181036020830152610f468184610ee6565b90509392505050565b600060208284031215610f6557610f64610b40565b5b6000610f7384828501610b61565b91505092915050565b6000604082019050610f916000830185610e5b565b610f9e6020830184610e5b565b9392505050565b6000606082019050610fba6000830186610a7a565b610fc76020830185610a7a565b610fd46040830184610a7a565b949350505050565b6000819050919050565b610fef81610fdc565b82525050565b600067ffffffffffffffff82169050919050565b61101281610ff5565b82525050565b600061ffff82169050919050565b61102f81611018565b82525050565b600063ffffffff82169050919050565b61104e81611035565b82525050565b600060a0820190506110696000830188610fe6565b6110766020830187611009565b6110836040830186611026565b6110906060830185611045565b61109d6080830184611045565b9695505050505050565b6000815190506110b681610b4a565b92915050565b6000602082840312156110d2576110d1610b40565b5b60006110e0848285016110a7565b91505092915050565b7f4e487b7100000000000000000000000000000000000000000000000000000000600052601160045260246000fd5b600061112382610a70565b915061112e83610a70565b9250828203905081811115611146576111456110e9565b5b92915050565b7f4e487b7100000000000000000000000000000000000000000000000000000000600052603260045260246000fd5b7f4e487b7100000000000000000000000000000000000000000000000000000000600052601260045260246000fd5b60006111b582610a70565b91506111c083610a70565b9250826111d0576111cf61117b565b5b828206905092915050565b600081905092915050565b50565b60006111f66000836111db565b9150611201826111e6565b600082019050919050565b6000611217826111e9565b915081905091905056fea2646970667358221220be55cde4eed8b6202941a552eb0affcc08d48806cc584bdad42aec4028d7cdc164736f6c634300081b0033",
  "linkReferences": {},
  "deployedLinkReferences": {}
}