{
  "_format": "hh-sol-artifact-1",
  "contractName": "Raffle",
  "sourceName": "contracts/Raffle.sol",
  "abi": [
    {
      "inputs": [
        {
          "internalType": "address",
          "name": "vrfCoordinatorV2",
          "type": "address"
        },
        {
          "internalType": "uint256",
          "name": "entranceFee",
          "type": "uint256"
        },
        {
          "internalType": "bytes32",
          "name": "gasLane",
          "type": "bytes32"
        },
        {
          "internalType": "uint64",
          "name": "subscriptionId",
          "type": "uint64"
        },
        {
          "internalType": "uint32",
          "name": "callbackgasLimit",
          "type": "uint32"
        },
        {
          "internalType": "uint256",
          "name": "interval",
          "type": "uint256"
        }
      ],
      "stateMutability": "nonpayable",
      "type": "constructor"
    },
    {
      "inputs": [
        {
          "internalType": "address",
          "name": "have",
          "type": "address"
        },
        {
          "internalType": "address",
          "name": "want",
          "type": "address"
        }
      ],
      "name": "OnlyCoordinatorCanFulfill",
      "type": "error"
    },
    {
      "inputs": [],
      "name": "Raffle_NotOpen",
      "type": "error"
    },
    {
      "inputs": [],
      "name": "Raffle_TransferFailed",
      "type": "error"
    },
    {
      "inputs": [
        {
          "internalType": "uint256",
          "name": "currentBalance",
          "type": "uint256"
        },
        {
          "internalType": "uint256",
          "name": "numPlayers",
          "type": "uint256"
        },
        {
          "internalType": "uint256",
          "name": "raffleState",
          "type": "uint256"
        }
      ],
      "name": "Raffle_UpkeepNotNeeded",
      "type": "error"
    },
    {
      "inputs": [],
      "name": "Raffle__NotEnoughETHEntered",
      "type": "error"
    },
    {
      "anonymous": false,
      "inputs": [
        {
          "indexed": true,
          "internalType": "address",
          "name": "player",
          "type": "address"
        }
      ],
      "name": "RaffleEnter",
      "type": "event"
    },
    {
      "anonymous": false,
      "inputs": [
        {
          "indexed": true,
          "internalType": "uint256",
          "name": "requestId",
          "type": "uint256"
        }
      ],
      "name": "RequestedRaffeWinner",
      "type": "event"
    },
    {
      "anonymous": false,
      "inputs": [
        {
          "indexed": true,
          "internalType": "address",
          "name": "winner",
          "type": "address"
        }
      ],
      "name": "WinnerPicked",
      "type": "event"
    },
    {
      "inputs": [
        {
          "internalType": "bytes",
          "name": "",
          "type": "bytes"
        }
      ],
      "name": "checkUpkeep",
      "outputs": [
        {
          "internalType": "bool",
          "name": "upkeepNeeded",
          "type": "bool"
        },
        {
          "internalType": "bytes",
          "name": "",
          "type": "bytes"
        }
      ],
      "stateMutability": "nonpayable",
      "type": "function"
    },
    {
      "inputs": [],
      "name": "enterRaffle",
      "outputs": [],
      "stateMutability": "payable",
      "type": "function"
    },
    {
      "inputs": [],
      "name": "getEntranceFee",
      "outputs": [
        {
          "internalType": "uint256",
          "name": "",
          "type": "uint256"
        }
      ],
      "stateMutability": "view",
      "type": "function"
    },
    {
      "inputs": [
        {
          "internalType": "uint256",
          "name": "index",
          "type": "uint256"
        }
      ],
      "name": "getPlayer",
      "outputs": [
        {
          "internalType": "address",
          "name": "",
          "type": "address"
        }
      ],
      "stateMutability": "view",
      "type": "function"
    },
    {
      "inputs": [],
      "name": "getRecentWinner",
      "outputs": [
        {
          "internalType": "address",
          "name": "",
          "type": "address"
        }
      ],
      "stateMutability": "view",
      "type": "function"
    },
    {
      "inputs": [
        {
          "internalType": "bytes",
          "name": "",
          "type": "bytes"
        }
      ],
      "name": "performUpkeep",
      "outputs": [],
      "stateMutability": "nonpayable",
      "type": "function"
    },
    {
      "inputs": [
        {
          "internalType": "uint256",
          "name": "requestId",
          "type": "uint256"
        },
        {
          "internalType": "uint256[]",
          "name": "randomWords",
          "type": "uint256[]"
        }
      ],
      "name": "rawFulfillRandomWords",
      "outputs": [],
      "stateMutability": "nonpayable",
      "type": "function"
    }
  ],
  "bytecode": "0x61016060405234801561001157600080fd5b506040516114f63803806114f683398181016040528101906100339190610270565b858073ffffffffffffffffffffffffffffffffffffffff1660808173ffffffffffffffffffffffffffffffffffffffff1681525050508460a081815250508573ffffffffffffffffffffffffffffffffffffffff1660c08173ffffffffffffffffffffffffffffffffffffffff16815250508360e081815250508267ffffffffffffffff166101008167ffffffffffffffff16815250508163ffffffff166101208163ffffffff16815250506000600160146101000a81548160ff02191690836001811115610105576101046102fd565b5b02179055504260028190555080610140818152505050505050505061032c565b600080fd5b600073ffffffffffffffffffffffffffffffffffffffff82169050919050565b60006101558261012a565b9050919050565b6101658161014a565b811461017057600080fd5b50565b6000815190506101828161015c565b92915050565b6000819050919050565b61019b81610188565b81146101a657600080fd5b50565b6000815190506101b881610192565b92915050565b6000819050919050565b6101d1816101be565b81146101dc57600080fd5b50565b6000815190506101ee816101c8565b92915050565b600067ffffffffffffffff82169050919050565b610211816101f4565b811461021c57600080fd5b50565b60008151905061022e81610208565b92915050565b600063ffffffff82169050919050565b61024d81610234565b811461025857600080fd5b50565b60008151905061026a81610244565b92915050565b60008060008060008060c0878903121561028d5761028c610125565b5b600061029b89828a01610173565b96505060206102ac89828a016101a9565b95505060406102bd89828a016101df565b94505060606102ce89828a0161021f565b93505060806102df89828a0161025b565b92505060a06102f089828a016101a9565b9150509295509295509295565b7f4e487b7100000000000000000000000000000000000000000000000000000000600052602160045260246000fd5b60805160a05160c05160e0516101005161012051610140516111626103946000396000610655015260006105300152600061050d015260006104ec015260006104b00152600081816101a6015261028c0152600081816101cc015261022001526111626000f3fe6080604052600436106100705760003560e01c80634585e33b1161004e5780634585e33b146100d3578063473f1ddc146100fc5780636e04ff0d14610127578063e55ae4e81461016557610070565b806309bc33a7146100755780631fe543e3146100a05780632cfcc539146100c9575b600080fd5b34801561008157600080fd5b5061008a6101a2565b60405161009791906109f7565b60405180910390f35b3480156100ac57600080fd5b506100c760048036038101906100c29190610bab565b6101ca565b005b6100d161028a565b005b3480156100df57600080fd5b506100fa60048036038101906100f59190610cbc565b6103f9565b005b34801561010857600080fd5b506101116105e8565b60405161011e9190610d46565b60405180910390f35b34801561013357600080fd5b5061014e60048036038101906101499190610cbc565b610612565b60405161015c929190610dfb565b60405180910390f35b34801561017157600080fd5b5061018c60048036038101906101879190610e2b565b6106bf565b6040516101999190610d46565b60405180910390f35b60007f0000000000000000000000000000000000000000000000000000000000000000905090565b7f000000000000000000000000000000000000000000000000000000000000000073ffffffffffffffffffffffffffffffffffffffff163373ffffffffffffffffffffffffffffffffffffffff161461027c57337f00000000000000000000000000000000000000000000000000000000000000006040517f1cf993f4000000000000000000000000000000000000000000000000000000008152600401610273929190610e58565b60405180910390fd5b6102868282610706565b5050565b7f00000000000000000000000000000000000000000000000000000000000000003410156102e4576040517fbd4e069500000000000000000000000000000000000000000000000000000000815260040160405180910390fd5b600060018111156102f8576102f7610e81565b5b600160149054906101000a900460ff16600181111561031a57610319610e81565b5b14610351576040517fd6e19a8d00000000000000000000000000000000000000000000000000000000815260040160405180910390fd5b6000339080600181540180825580915050600190039060005260206000200160009091909190916101000a81548173ffffffffffffffffffffffffffffffffffffffff021916908373ffffffffffffffffffffffffffffffffffffffff1602179055503373ffffffffffffffffffffffffffffffffffffffff167f0805e1d667bddb8a95f0f09880cf94f403fb596ce79928d9f29b74203ba284d460405160405180910390a2565b600061041360405180602001604052806000815250610612565b509050806104825747600080549050600160149054906101000a900460ff16600181111561044457610443610e81565b5b6040517fe059521b00000000000000000000000000000000000000000000000000000000815260040161047993929190610eb0565b60405180910390fd5b60018060146101000a81548160ff021916908360018111156104a7576104a6610e81565b5b021790555060007f000000000000000000000000000000000000000000000000000000000000000073ffffffffffffffffffffffffffffffffffffffff16635d3b1d307f00000000000000000000000000000000000000000000000000000000000000007f000000000000000000000000000000000000000000000000000000000000000060037f000000000000000000000000000000000000000000000000000000000000000060016040518663ffffffff1660e01b8152600401610571959493929190610f5f565b6020604051808303816000875af1158015610590573d6000803e3d6000fd5b505050506040513d601f19601f820116820180604052508101906105b49190610fc7565b9050807f9f1ed633b80754d60fd8b36137a9d4080110703e220c89eb75f20fb35f2c225060405160405180910390a2505050565b6000600160009054906101000a900473ffffffffffffffffffffffffffffffffffffffff16905090565b600060606000600160149054906101000a900460ff16600181111561063a57610639610e81565b5b6000600181111561064e5761064d610e81565b5b14905060007f0000000000000000000000000000000000000000000000000000000000000000600254426106829190611023565b119050600080600080549050119050600080471190508380156106a25750825b80156106ab5750815b80156106b45750805b955050505050915091565b60008082815481106106d4576106d3611057565b5b9060005260206000200160009054906101000a900473ffffffffffffffffffffffffffffffffffffffff169050919050565b600080805490508260008151811061072157610720611057565b5b602002602001015161073391906110b5565b9050600080828154811061074a57610749611057565b5b9060005260206000200160009054906101000a900473ffffffffffffffffffffffffffffffffffffffff16905080600160006101000a81548173ffffffffffffffffffffffffffffffffffffffff021916908373ffffffffffffffffffffffffffffffffffffffff1602179055506000600160146101000a81548160ff021916908360018111156107de576107dd610e81565b5b0217905550600067ffffffffffffffff8111156107fe576107fd610a68565b5b60405190808252806020026020018201604052801561082c5781602001602082028036833780820191505090505b5060009080519060200190610842929190610937565b504260028190555060008173ffffffffffffffffffffffffffffffffffffffff164760405161087090611117565b60006040518083038185875af1925050503d80600081146108ad576040519150601f19603f3d011682016040523d82523d6000602084013e6108b2565b606091505b50509050806108ed576040517fba31c4f300000000000000000000000000000000000000000000000000000000815260040160405180910390fd5b8173ffffffffffffffffffffffffffffffffffffffff167f5b690ec4a06fe979403046eaeea5b3ce38524683c3001f662c8b5a829632f7df60405160405180910390a25050505050565b8280548282559060005260206000209081019282156109b0579160200282015b828111156109af5782518260006101000a81548173ffffffffffffffffffffffffffffffffffffffff021916908373ffffffffffffffffffffffffffffffffffffffff16021790555091602001919060010190610957565b5b5090506109bd91906109c1565b5090565b5b808211156109da5760008160009055506001016109c2565b5090565b6000819050919050565b6109f1816109de565b82525050565b6000602082019050610a0c60008301846109e8565b92915050565b6000604051905090565b600080fd5b600080fd5b610a2f816109de565b8114610a3a57600080fd5b50565b600081359050610a4c81610a26565b92915050565b600080fd5b6000601f19601f8301169050919050565b7f4e487b7100000000000000000000000000000000000000000000000000000000600052604160045260246000fd5b610aa082610a57565b810181811067ffffffffffffffff82111715610abf57610abe610a68565b5b80604052505050565b6000610ad2610a12565b9050610ade8282610a97565b919050565b600067ffffffffffffffff821115610afe57610afd610a68565b5b602082029050602081019050919050565b600080fd5b6000610b27610b2284610ae3565b610ac8565b90508083825260208201905060208402830185811115610b4a57610b49610b0f565b5b835b81811015610b735780610b5f8882610a3d565b845260208401935050602081019050610b4c565b5050509392505050565b600082601f830112610b9257610b91610a52565b5b8135610ba2848260208601610b14565b91505092915050565b60008060408385031215610bc257610bc1610a1c565b5b6000610bd085828601610a3d565b925050602083013567ffffffffffffffff811115610bf157610bf0610a21565b5b610bfd85828601610b7d565b9150509250929050565b600080fd5b600067ffffffffffffffff821115610c2757610c26610a68565b5b610c3082610a57565b9050602081019050919050565b82818337600083830152505050565b6000610c5f610c5a84610c0c565b610ac8565b905082815260208101848484011115610c7b57610c7a610c07565b5b610c86848285610c3d565b509392505050565b600082601f830112610ca357610ca2610a52565b5b8135610cb3848260208601610c4c565b91505092915050565b600060208284031215610cd257610cd1610a1c565b5b600082013567ffffffffffffffff811115610cf057610cef610a21565b5b610cfc84828501610c8e565b91505092915050565b600073ffffffffffffffffffffffffffffffffffffffff82169050919050565b6000610d3082610d05565b9050919050565b610d4081610d25565b82525050565b6000602082019050610d5b6000830184610d37565b92915050565b60008115159050919050565b610d7681610d61565b82525050565b600081519050919050565b600082825260208201905092915050565b60005b83811015610db6578082015181840152602081019050610d9b565b60008484015250505050565b6000610dcd82610d7c565b610dd78185610d87565b9350610de7818560208601610d98565b610df081610a57565b840191505092915050565b6000604082019050610e106000830185610d6d565b8181036020830152610e228184610dc2565b90509392505050565b600060208284031215610e4157610e40610a1c565b5b6000610e4f84828501610a3d565b91505092915050565b6000604082019050610e6d6000830185610d37565b610e7a6020830184610d37565b9392505050565b7f4e487b7100000000000000000000000000000000000000000000000000000000600052602160045260246000fd5b6000606082019050610ec560008301866109e8565b610ed260208301856109e8565b610edf60408301846109e8565b949350505050565b6000819050919050565b610efa81610ee7565b82525050565b600067ffffffffffffffff82169050919050565b610f1d81610f00565b82525050565b600061ffff82169050919050565b610f3a81610f23565b82525050565b600063ffffffff82169050919050565b610f5981610f40565b82525050565b600060a082019050610f746000830188610ef1565b610f816020830187610f14565b610f8e6040830186610f31565b610f9b6060830185610f50565b610fa86080830184610f50565b9695505050505050565b600081519050610fc181610a26565b92915050565b600060208284031215610fdd57610fdc610a1c565b5b6000610feb84828501610fb2565b91505092915050565b7f4e487b7100000000000000000000000000000000000000000000000000000000600052601160045260246000fd5b600061102e826109de565b9150611039836109de565b925082820390508181111561105157611050610ff4565b5b92915050565b7f4e487b7100000000000000000000000000000000000000000000000000000000600052603260045260246000fd5b7f4e487b7100000000000000000000000000000000000000000000000000000000600052601260045260246000fd5b60006110c0826109de565b91506110cb836109de565b9250826110db576110da611086565b5b828206905092915050565b600081905092915050565b50565b60006111016000836110e6565b915061110c826110f1565b600082019050919050565b6000611122826110f4565b915081905091905056fea2646970667358221220f8bbb32076135c82dedd31fd6f572958fb9d1d2461db9f3db091d0f6df6b3a7864736f6c634300081b0033",
  "linkReferences": {},
  "deployedLinkReferences": {}
}