{
  "_format": "hh-sol-artifact-1",
  "contractName": "Raffle",
  "sourceName": "contracts/Raffle.sol",
  "abi": [
    {
      "inputs": [
        {
          "internalType": "address",
          "name": "vrfCoordinatorV2",
          "type": "address"
        },
        {
          "internalType": "uint256",
          "name": "entranceFee",
          "type": "uint256"
        },
        {
          "internalType": "bytes32",
          "name": "gasLane",
          "type": "bytes32"
        },
        {
          "internalType": "uint256",
          "name": "subscriptionId",
          "type": "uint256"
        },
        {
          "internalType": "uint32",
          "name": "callbackGasLimit",
          "type": "uint32"
        },
        {
          "internalType": "uint256",
          "name": "interval",
          "type": "uint256"
        }
      ],
      "stateMutability": "nonpayable",
      "type": "constructor"
    },
    {
      "inputs": [
        {
          "internalType": "address",
          "name": "have",
          "type": "address"
        },
        {
          "internalType": "address",
          "name": "want",
          "type": "address"
        }
      ],
      "name": "OnlyCoordinatorCanFulfill",
      "type": "error"
    },
    {
      "inputs": [
        {
          "internalType": "address",
          "name": "have",
          "type": "address"
        },
        {
          "internalType": "address",
          "name": "owner",
          "type": "address"
        },
        {
          "internalType": "address",
          "name": "coordinator",
          "type": "address"
        }
      ],
      "name": "OnlyOwnerOrCoordinator",
      "type": "error"
    },
    {
      "inputs": [],
      "name": "Raffle__NotEnoughETHEntered",
      "type": "error"
    },
    {
      "inputs": [],
      "name": "Raffle__NotOpen",
      "type": "error"
    },
    {
      "inputs": [],
      "name": "Raffle__TransferFailed",
      "type": "error"
    },
    {
      "inputs": [],
      "name": "ZeroAddress",
      "type": "error"
    },
    {
      "anonymous": false,
      "inputs": [
        {
          "indexed": false,
          "internalType": "address",
          "name": "vrfCoordinator",
          "type": "address"
        }
      ],
      "name": "CoordinatorSet",
      "type": "event"
    },
    {
      "anonymous": false,
      "inputs": [
        {
          "indexed": true,
          "internalType": "address",
          "name": "from",
          "type": "address"
        },
        {
          "indexed": true,
          "internalType": "address",
          "name": "to",
          "type": "address"
        }
      ],
      "name": "OwnershipTransferRequested",
      "type": "event"
    },
    {
      "anonymous": false,
      "inputs": [
        {
          "indexed": true,
          "internalType": "address",
          "name": "from",
          "type": "address"
        },
        {
          "indexed": true,
          "internalType": "address",
          "name": "to",
          "type": "address"
        }
      ],
      "name": "OwnershipTransferred",
      "type": "event"
    },
    {
      "anonymous": false,
      "inputs": [
        {
          "indexed": true,
          "internalType": "address",
          "name": "player",
          "type": "address"
        }
      ],
      "name": "RaffleEnter",
      "type": "event"
    },
    {
      "anonymous": false,
      "inputs": [
        {
          "indexed": true,
          "internalType": "uint256",
          "name": "requestId",
          "type": "uint256"
        }
      ],
      "name": "RequestedRaffleWinner",
      "type": "event"
    },
    {
      "anonymous": false,
      "inputs": [
        {
          "indexed": true,
          "internalType": "address",
          "name": "winner",
          "type": "address"
        }
      ],
      "name": "WinnerPicked",
      "type": "event"
    },
    {
      "inputs": [],
      "name": "acceptOwnership",
      "outputs": [],
      "stateMutability": "nonpayable",
      "type": "function"
    },
    {
      "inputs": [
        {
          "internalType": "bytes",
          "name": "",
          "type": "bytes"
        }
      ],
      "name": "checkUpkeep",
      "outputs": [
        {
          "internalType": "bool",
          "name": "upkeepNeeded",
          "type": "bool"
        },
        {
          "internalType": "bytes",
          "name": "",
          "type": "bytes"
        }
      ],
      "stateMutability": "view",
      "type": "function"
    },
    {
      "inputs": [],
      "name": "enterRaffle",
      "outputs": [],
      "stateMutability": "payable",
      "type": "function"
    },
    {
      "inputs": [],
      "name": "getEntranceFee",
      "outputs": [
        {
          "internalType": "uint256",
          "name": "",
          "type": "uint256"
        }
      ],
      "stateMutability": "view",
      "type": "function"
    },
    {
      "inputs": [],
      "name": "getInterval",
      "outputs": [
        {
          "internalType": "uint256",
          "name": "",
          "type": "uint256"
        }
      ],
      "stateMutability": "view",
      "type": "function"
    },
    {
      "inputs": [],
      "name": "getLastestTimeStamp",
      "outputs": [
        {
          "internalType": "uint256",
          "name": "",
          "type": "uint256"
        }
      ],
      "stateMutability": "view",
      "type": "function"
    },
    {
      "inputs": [],
      "name": "getNumWords",
      "outputs": [
        {
          "internalType": "uint256",
          "name": "",
          "type": "uint256"
        }
      ],
      "stateMutability": "pure",
      "type": "function"
    },
    {
      "inputs": [],
      "name": "getNumberOfPlayers",
      "outputs": [
        {
          "internalType": "uint256",
          "name": "",
          "type": "uint256"
        }
      ],
      "stateMutability": "view",
      "type": "function"
    },
    {
      "inputs": [
        {
          "internalType": "uint256",
          "name": "index",
          "type": "uint256"
        }
      ],
      "name": "getPlayer",
      "outputs": [
        {
          "internalType": "address",
          "name": "",
          "type": "address"
        }
      ],
      "stateMutability": "view",
      "type": "function"
    },
    {
      "inputs": [],
      "name": "getRaffleState",
      "outputs": [
        {
          "internalType": "enum Raffle.RaffleState",
          "name": "",
          "type": "uint8"
        }
      ],
      "stateMutability": "view",
      "type": "function"
    },
    {
      "inputs": [],
      "name": "getRecentWinner",
      "outputs": [
        {
          "internalType": "address",
          "name": "",
          "type": "address"
        }
      ],
      "stateMutability": "view",
      "type": "function"
    },
    {
      "inputs": [],
      "name": "getRequestConfirmations",
      "outputs": [
        {
          "internalType": "uint256",
          "name": "",
          "type": "uint256"
        }
      ],
      "stateMutability": "pure",
      "type": "function"
    },
    {
      "inputs": [],
      "name": "getSubscriptionId",
      "outputs": [
        {
          "internalType": "uint256",
          "name": "",
          "type": "uint256"
        }
      ],
      "stateMutability": "view",
      "type": "function"
    },
    {
      "inputs": [],
      "name": "owner",
      "outputs": [
        {
          "internalType": "address",
          "name": "",
          "type": "address"
        }
      ],
      "stateMutability": "view",
      "type": "function"
    },
    {
      "inputs": [
        {
          "internalType": "bytes",
          "name": "",
          "type": "bytes"
        }
      ],
      "name": "performUpkeep",
      "outputs": [],
      "stateMutability": "nonpayable",
      "type": "function"
    },
    {
      "inputs": [
        {
          "internalType": "uint256",
          "name": "requestId",
          "type": "uint256"
        },
        {
          "internalType": "uint256[]",
          "name": "randomWords",
          "type": "uint256[]"
        }
      ],
      "name": "rawFulfillRandomWords",
      "outputs": [],
      "stateMutability": "nonpayable",
      "type": "function"
    },
    {
      "inputs": [],
      "name": "s_vrfCoordinator",
      "outputs": [
        {
          "internalType": "contract IVRFCoordinatorV2Plus",
          "name": "",
          "type": "address"
        }
      ],
      "stateMutability": "view",
      "type": "function"
    },
    {
      "inputs": [
        {
          "internalType": "address",
          "name": "_vrfCoordinator",
          "type": "address"
        }
      ],
      "name": "setCoordinator",
      "outputs": [],
      "stateMutability": "nonpayable",
      "type": "function"
    },
    {
      "inputs": [
        {
          "internalType": "address",
          "name": "to",
          "type": "address"
        }
      ],
      "name": "transferOwnership",
      "outputs": [],
      "stateMutability": "nonpayable",
      "type": "function"
    }
  ],
  "bytecode": "0x61012060405234801561001157600080fd5b5060405161230d38038061230d8339818101604052810190610033919061047e565b85338060008073ffffffffffffffffffffffffffffffffffffffff168273ffffffffffffffffffffffffffffffffffffffff16036100a6576040517f08c379a000000000000000000000000000000000000000000000000000000000815260040161009d90610568565b60405180910390fd5b816000806101000a81548173ffffffffffffffffffffffffffffffffffffffff021916908373ffffffffffffffffffffffffffffffffffffffff160217905550600073ffffffffffffffffffffffffffffffffffffffff168173ffffffffffffffffffffffffffffffffffffffff161461012a576101298161024760201b60201c565b5b505050600073ffffffffffffffffffffffffffffffffffffffff168173ffffffffffffffffffffffffffffffffffffffff1603610193576040517fd92e233d00000000000000000000000000000000000000000000000000000000815260040160405180910390fd5b80600260006101000a81548173ffffffffffffffffffffffffffffffffffffffff021916908373ffffffffffffffffffffffffffffffffffffffff160217905550508460c081815250508360a081815250508260e081815250508163ffffffff166101008163ffffffff16815250506000600460146101000a81548160ff0219169083600181111561022857610227610588565b5b0217905550426005819055508060808181525050505050505050610623565b3373ffffffffffffffffffffffffffffffffffffffff168173ffffffffffffffffffffffffffffffffffffffff16036102b5576040517f08c379a00000000000000000000000000000000000000000000000000000000081526004016102ac90610603565b60405180910390fd5b80600160006101000a81548173ffffffffffffffffffffffffffffffffffffffff021916908373ffffffffffffffffffffffffffffffffffffffff1602179055508073ffffffffffffffffffffffffffffffffffffffff1660008054906101000a900473ffffffffffffffffffffffffffffffffffffffff1673ffffffffffffffffffffffffffffffffffffffff167fed8889f560326eb138920d842192f0eb3dd22b4f139c87a2c57538e05bae127860405160405180910390a350565b600080fd5b600073ffffffffffffffffffffffffffffffffffffffff82169050919050565b60006103a382610378565b9050919050565b6103b381610398565b81146103be57600080fd5b50565b6000815190506103d0816103aa565b92915050565b6000819050919050565b6103e9816103d6565b81146103f457600080fd5b50565b600081519050610406816103e0565b92915050565b6000819050919050565b61041f8161040c565b811461042a57600080fd5b50565b60008151905061043c81610416565b92915050565b600063ffffffff82169050919050565b61045b81610442565b811461046657600080fd5b50565b60008151905061047881610452565b92915050565b60008060008060008060c0878903121561049b5761049a610373565b5b60006104a989828a016103c1565b96505060206104ba89828a016103f7565b95505060406104cb89828a0161042d565b94505060606104dc89828a016103f7565b93505060806104ed89828a01610469565b92505060a06104fe89828a016103f7565b9150509295509295509295565b600082825260208201905092915050565b7f43616e6e6f7420736574206f776e657220746f207a65726f0000000000000000600082015250565b600061055260188361050b565b915061055d8261051c565b602082019050919050565b6000602082019050818103600083015261058181610545565b9050919050565b7f4e487b7100000000000000000000000000000000000000000000000000000000600052602160045260246000fd5b7f43616e6e6f74207472616e7366657220746f2073656c66000000000000000000600082015250565b60006105ed60178361050b565b91506105f8826105b7565b602082019050919050565b6000602082019050818103600083015261061c816105e0565b9050919050565b60805160a05160c05160e05161010051611c9161067c60003960006107750152600081816107440152610d4b01526000818161043601526105390152600061071e0152600081816108e40152610cfd0152611c916000f3fe6080604052600436106101145760003560e01c806379ba5097116100a05780639eccacf6116100645780639eccacf61461034b578063de3d9fb714610376578063e55ae4e8146103a1578063f2fde38b146103de578063fd6673f51461040757610114565b806379ba50971461028a5780638ba05b0e146102a15780638da5cb5b146102cc5780638ea98117146102f757806391ad27b41461032057610114565b80634585e33b116100e75780634585e33b146101a2578063473f1ddc146101cb57806353a2c19a146101f65780635f1b0fd8146102215780636e04ff0d1461024c57610114565b806309bc33a714610119578063115cbaf5146101445780631fe543e31461016f5780632cfcc53914610198575b600080fd5b34801561012557600080fd5b5061012e610432565b60405161013b91906112dc565b60405180910390f35b34801561015057600080fd5b5061015961045a565b604051610166919061136e565b60405180910390f35b34801561017b57600080fd5b5061019660048036038101906101919190611424565b610471565b005b6101a0610537565b005b3480156101ae57600080fd5b506101c960048036038101906101c491906114da565b6106a6565b005b3480156101d757600080fd5b506101e061085c565b6040516101ed9190611568565b60405180910390f35b34801561020257600080fd5b5061020b610886565b60405161021891906112dc565b60405180910390f35b34801561022d57600080fd5b50610236610895565b60405161024391906112dc565b60405180910390f35b34801561025857600080fd5b50610273600480360381019061026e91906114da565b6108a2565b60405161028192919061162e565b60405180910390f35b34801561029657600080fd5b5061029f610950565b005b3480156102ad57600080fd5b506102b6610ae5565b6040516102c391906112dc565b60405180910390f35b3480156102d857600080fd5b506102e1610aef565b6040516102ee9190611568565b60405180910390f35b34801561030357600080fd5b5061031e6004803603810190610319919061168a565b610b18565b005b34801561032c57600080fd5b50610335610cf9565b60405161034291906112dc565b60405180910390f35b34801561035757600080fd5b50610360610d21565b60405161036d9190611716565b60405180910390f35b34801561038257600080fd5b5061038b610d47565b60405161039891906112dc565b60405180910390f35b3480156103ad57600080fd5b506103c860048036038101906103c39190611731565b610d6f565b6040516103d59190611568565b60405180910390f35b3480156103ea57600080fd5b506104056004803603810190610400919061168a565b610db7565b005b34801561041357600080fd5b5061041c610dcb565b60405161042991906112dc565b60405180910390f35b60007f0000000000000000000000000000000000000000000000000000000000000000905090565b6000600460149054906101000a900460ff16905090565b600260009054906101000a900473ffffffffffffffffffffffffffffffffffffffff1673ffffffffffffffffffffffffffffffffffffffff163373ffffffffffffffffffffffffffffffffffffffff16146105275733600260009054906101000a900473ffffffffffffffffffffffffffffffffffffffff166040517f1cf993f400000000000000000000000000000000000000000000000000000000815260040161051e92919061175e565b60405180910390fd5b610532838383610dd8565b505050565b7f0000000000000000000000000000000000000000000000000000000000000000341015610591576040517fbd4e069500000000000000000000000000000000000000000000000000000000815260040160405180910390fd5b600060018111156105a5576105a46112f7565b5b600460149054906101000a900460ff1660018111156105c7576105c66112f7565b5b146105fe576040517f1425571c00000000000000000000000000000000000000000000000000000000815260040160405180910390fd5b6003339080600181540180825580915050600190039060005260206000200160009091909190916101000a81548173ffffffffffffffffffffffffffffffffffffffff021916908373ffffffffffffffffffffffffffffffffffffffff1602179055503373ffffffffffffffffffffffffffffffffffffffff167f0805e1d667bddb8a95f0f09880cf94f403fb596ce79928d9f29b74203ba284d460405160405180910390a2565b6001600460146101000a81548160ff021916908360018111156106cc576106cb6112f7565b5b02179055506000600260009054906101000a900473ffffffffffffffffffffffffffffffffffffffff1673ffffffffffffffffffffffffffffffffffffffff16639b1c385e6040518060c001604052807f000000000000000000000000000000000000000000000000000000000000000081526020017f00000000000000000000000000000000000000000000000000000000000000008152602001600361ffff1681526020017f000000000000000000000000000000000000000000000000000000000000000063ffffffff168152602001600163ffffffff1681526020016107c6604051806020016040528060001515815250610fc8565b8152506040518263ffffffff1660e01b81526004016107e591906118be565b6020604051808303816000875af1158015610804573d6000803e3d6000fd5b505050506040513d601f19601f8201168201806040525081019061082891906118f5565b9050807fcd6e45c8998311cab7e9d4385596cac867e20a0587194b954fa3a731c93ce78b60405160405180910390a2505050565b6000600460009054906101000a900473ffffffffffffffffffffffffffffffffffffffff16905090565b6000600163ffffffff16905090565b6000600361ffff16905090565b6000606060008060018111156108bb576108ba6112f7565b5b600460149054906101000a900460ff1660018111156108dd576108dc6112f7565b5b14905060007f0000000000000000000000000000000000000000000000000000000000000000600554426109119190611951565b119050600080600380549050119050600080471190508380156109315750825b801561093a5750815b80156109435750805b9550505050509250929050565b600160009054906101000a900473ffffffffffffffffffffffffffffffffffffffff1673ffffffffffffffffffffffffffffffffffffffff163373ffffffffffffffffffffffffffffffffffffffff16146109e0576040517f08c379a00000000000000000000000000000000000000000000000000000000081526004016109d7906119e2565b60405180910390fd5b60008060009054906101000a900473ffffffffffffffffffffffffffffffffffffffff169050336000806101000a81548173ffffffffffffffffffffffffffffffffffffffff021916908373ffffffffffffffffffffffffffffffffffffffff1602179055506000600160006101000a81548173ffffffffffffffffffffffffffffffffffffffff021916908373ffffffffffffffffffffffffffffffffffffffff1602179055503373ffffffffffffffffffffffffffffffffffffffff168173ffffffffffffffffffffffffffffffffffffffff167f8be0079c531659141344cd1fd0a4f28419497f9722a3daafe3b4186f6b6457e060405160405180910390a350565b6000600554905090565b60008060009054906101000a900473ffffffffffffffffffffffffffffffffffffffff16905090565b610b20610aef565b73ffffffffffffffffffffffffffffffffffffffff163373ffffffffffffffffffffffffffffffffffffffff1614158015610ba95750600260009054906101000a900473ffffffffffffffffffffffffffffffffffffffff1673ffffffffffffffffffffffffffffffffffffffff163373ffffffffffffffffffffffffffffffffffffffff1614155b15610c185733610bb7610aef565b600260009054906101000a900473ffffffffffffffffffffffffffffffffffffffff166040517f061db9c1000000000000000000000000000000000000000000000000000000008152600401610c0f93929190611a02565b60405180910390fd5b600073ffffffffffffffffffffffffffffffffffffffff168173ffffffffffffffffffffffffffffffffffffffff1603610c7e576040517fd92e233d00000000000000000000000000000000000000000000000000000000815260040160405180910390fd5b80600260006101000a81548173ffffffffffffffffffffffffffffffffffffffff021916908373ffffffffffffffffffffffffffffffffffffffff1602179055507fd1a6a14209a385a964d036e404cb5cfb71f4000cdb03c9366292430787261be681604051610cee9190611568565b60405180910390a150565b60007f0000000000000000000000000000000000000000000000000000000000000000905090565b600260009054906101000a900473ffffffffffffffffffffffffffffffffffffffff1681565b60007f0000000000000000000000000000000000000000000000000000000000000000905090565b600060038281548110610d8557610d84611a39565b5b9060005260206000200160009054906101000a900473ffffffffffffffffffffffffffffffffffffffff169050919050565b610dbf611060565b610dc8816110f0565b50565b6000600380549050905090565b600060038054905083836000818110610df457610df3611a39565b5b90506020020135610e059190611a97565b9050600060038281548110610e1d57610e1c611a39565b5b9060005260206000200160009054906101000a900473ffffffffffffffffffffffffffffffffffffffff16905080600460006101000a81548173ffffffffffffffffffffffffffffffffffffffff021916908373ffffffffffffffffffffffffffffffffffffffff1602179055506000600460146101000a81548160ff02191690836001811115610eb157610eb06112f7565b5b0217905550600067ffffffffffffffff811115610ed157610ed0611ac8565b5b604051908082528060200260200182016040528015610eff5781602001602082028036833780820191505090505b5060039080519060200190610f1592919061121c565b504260058190555060008173ffffffffffffffffffffffffffffffffffffffff1647604051610f4390611b28565b60006040518083038185875af1925050503d8060008114610f80576040519150601f19603f3d011682016040523d82523d6000602084013e610f85565b606091505b5050905080610fc0576040517fa1d04b3900000000000000000000000000000000000000000000000000000000815260040160405180910390fd5b505050505050565b60607f92fd13387c7fe7befbc38d303d6468778fb9731bc4583f17d92989c6fcfdeaaa82604051602401610ffc9190611b68565b604051602081830303815290604052907bffffffffffffffffffffffffffffffffffffffffffffffffffffffff19166020820180517bffffffffffffffffffffffffffffffffffffffffffffffffffffffff83818316178352505050509050919050565b60008054906101000a900473ffffffffffffffffffffffffffffffffffffffff1673ffffffffffffffffffffffffffffffffffffffff163373ffffffffffffffffffffffffffffffffffffffff16146110ee576040517f08c379a00000000000000000000000000000000000000000000000000000000081526004016110e590611bcf565b60405180910390fd5b565b3373ffffffffffffffffffffffffffffffffffffffff168173ffffffffffffffffffffffffffffffffffffffff160361115e576040517f08c379a000000000000000000000000000000000000000000000000000000000815260040161115590611c3b565b60405180910390fd5b80600160006101000a81548173ffffffffffffffffffffffffffffffffffffffff021916908373ffffffffffffffffffffffffffffffffffffffff1602179055508073ffffffffffffffffffffffffffffffffffffffff1660008054906101000a900473ffffffffffffffffffffffffffffffffffffffff1673ffffffffffffffffffffffffffffffffffffffff167fed8889f560326eb138920d842192f0eb3dd22b4f139c87a2c57538e05bae127860405160405180910390a350565b828054828255906000526020600020908101928215611295579160200282015b828111156112945782518260006101000a81548173ffffffffffffffffffffffffffffffffffffffff021916908373ffffffffffffffffffffffffffffffffffffffff1602179055509160200191906001019061123c565b5b5090506112a291906112a6565b5090565b5b808211156112bf5760008160009055506001016112a7565b5090565b6000819050919050565b6112d6816112c3565b82525050565b60006020820190506112f160008301846112cd565b92915050565b7f4e487b7100000000000000000000000000000000000000000000000000000000600052602160045260246000fd5b60028110611337576113366112f7565b5b50565b600081905061134882611326565b919050565b60006113588261133a565b9050919050565b6113688161134d565b82525050565b6000602082019050611383600083018461135f565b92915050565b600080fd5b600080fd5b61139c816112c3565b81146113a757600080fd5b50565b6000813590506113b981611393565b92915050565b600080fd5b600080fd5b600080fd5b60008083601f8401126113e4576113e36113bf565b5b8235905067ffffffffffffffff811115611401576114006113c4565b5b60208301915083602082028301111561141d5761141c6113c9565b5b9250929050565b60008060006040848603121561143d5761143c611389565b5b600061144b868287016113aa565b935050602084013567ffffffffffffffff81111561146c5761146b61138e565b5b611478868287016113ce565b92509250509250925092565b60008083601f84011261149a576114996113bf565b5b8235905067ffffffffffffffff8111156114b7576114b66113c4565b5b6020830191508360018202830111156114d3576114d26113c9565b5b9250929050565b600080602083850312156114f1576114f0611389565b5b600083013567ffffffffffffffff81111561150f5761150e61138e565b5b61151b85828601611484565b92509250509250929050565b600073ffffffffffffffffffffffffffffffffffffffff82169050919050565b600061155282611527565b9050919050565b61156281611547565b82525050565b600060208201905061157d6000830184611559565b92915050565b60008115159050919050565b61159881611583565b82525050565b600081519050919050565b600082825260208201905092915050565b60005b838110156115d85780820151818401526020810190506115bd565b60008484015250505050565b6000601f19601f8301169050919050565b60006116008261159e565b61160a81856115a9565b935061161a8185602086016115ba565b611623816115e4565b840191505092915050565b6000604082019050611643600083018561158f565b818103602083015261165581846115f5565b90509392505050565b61166781611547565b811461167257600080fd5b50565b6000813590506116848161165e565b92915050565b6000602082840312156116a05761169f611389565b5b60006116ae84828501611675565b91505092915050565b6000819050919050565b60006116dc6116d76116d284611527565b6116b7565b611527565b9050919050565b60006116ee826116c1565b9050919050565b6000611700826116e3565b9050919050565b611710816116f5565b82525050565b600060208201905061172b6000830184611707565b92915050565b60006020828403121561174757611746611389565b5b6000611755848285016113aa565b91505092915050565b60006040820190506117736000830185611559565b6117806020830184611559565b9392505050565b6000819050919050565b61179a81611787565b82525050565b6117a9816112c3565b82525050565b600061ffff82169050919050565b6117c6816117af565b82525050565b600063ffffffff82169050919050565b6117e5816117cc565b82525050565b600082825260208201905092915050565b60006118078261159e565b61181181856117eb565b93506118218185602086016115ba565b61182a816115e4565b840191505092915050565b600060c08301600083015161184d6000860182611791565b50602083015161186060208601826117a0565b50604083015161187360408601826117bd565b50606083015161188660608601826117dc565b50608083015161189960808601826117dc565b5060a083015184820360a08601526118b182826117fc565b9150508091505092915050565b600060208201905081810360008301526118d88184611835565b905092915050565b6000815190506118ef81611393565b92915050565b60006020828403121561190b5761190a611389565b5b6000611919848285016118e0565b91505092915050565b7f4e487b7100000000000000000000000000000000000000000000000000000000600052601160045260246000fd5b600061195c826112c3565b9150611967836112c3565b925082820390508181111561197f5761197e611922565b5b92915050565b600082825260208201905092915050565b7f4d7573742062652070726f706f736564206f776e657200000000000000000000600082015250565b60006119cc601683611985565b91506119d782611996565b602082019050919050565b600060208201905081810360008301526119fb816119bf565b9050919050565b6000606082019050611a176000830186611559565b611a246020830185611559565b611a316040830184611559565b949350505050565b7f4e487b7100000000000000000000000000000000000000000000000000000000600052603260045260246000fd5b7f4e487b7100000000000000000000000000000000000000000000000000000000600052601260045260246000fd5b6000611aa2826112c3565b9150611aad836112c3565b925082611abd57611abc611a68565b5b828206905092915050565b7f4e487b7100000000000000000000000000000000000000000000000000000000600052604160045260246000fd5b600081905092915050565b50565b6000611b12600083611af7565b9150611b1d82611b02565b600082019050919050565b6000611b3382611b05565b9150819050919050565b611b4681611583565b82525050565b602082016000820151611b626000850182611b3d565b50505050565b6000602082019050611b7d6000830184611b4c565b92915050565b7f4f6e6c792063616c6c61626c65206279206f776e657200000000000000000000600082015250565b6000611bb9601683611985565b9150611bc482611b83565b602082019050919050565b60006020820190508181036000830152611be881611bac565b9050919050565b7f43616e6e6f74207472616e7366657220746f2073656c66000000000000000000600082015250565b6000611c25601783611985565b9150611c3082611bef565b602082019050919050565b60006020820190508181036000830152611c5481611c18565b905091905056fea264697066735822122071dd9599b14743b8df36e7f1640f8a3b6979aba6c8826b0134bbb917385e5b3964736f6c634300081b0033",
  "linkReferences": {},
  "deployedLinkReferences": {}
}