{
  "_format": "hh-sol-artifact-1",
  "contractName": "Raffle",
  "sourceName": "contracts/Raffle.sol",
  "abi": [
    {
      "inputs": [
        {
          "internalType": "address",
          "name": "vrfCoordinatorV2",
          "type": "address"
        },
        {
          "internalType": "uint256",
          "name": "entranceFee",
          "type": "uint256"
        },
        {
          "internalType": "bytes32",
          "name": "gasLane",
          "type": "bytes32"
        },
        {
          "internalType": "uint64",
          "name": "subscriptionId",
          "type": "uint64"
        },
        {
          "internalType": "uint32",
          "name": "callbackgasLimit",
          "type": "uint32"
        }
      ],
      "stateMutability": "nonpayable",
      "type": "constructor"
    },
    {
      "inputs": [
        {
          "internalType": "address",
          "name": "have",
          "type": "address"
        },
        {
          "internalType": "address",
          "name": "want",
          "type": "address"
        }
      ],
      "name": "OnlyCoordinatorCanFulfill",
      "type": "error"
    },
    {
      "inputs": [],
      "name": "Raffle_TransferFailed",
      "type": "error"
    },
    {
      "inputs": [],
      "name": "Raffle__NotEnoughETHEntered",
      "type": "error"
    },
    {
      "anonymous": false,
      "inputs": [
        {
          "indexed": true,
          "internalType": "address",
          "name": "player",
          "type": "address"
        }
      ],
      "name": "RaffleEnter",
      "type": "event"
    },
    {
      "anonymous": false,
      "inputs": [
        {
          "indexed": true,
          "internalType": "uint256",
          "name": "requestId",
          "type": "uint256"
        }
      ],
      "name": "RequestedRaffeWinner",
      "type": "event"
    },
    {
      "anonymous": false,
      "inputs": [
        {
          "indexed": true,
          "internalType": "address",
          "name": "winner",
          "type": "address"
        }
      ],
      "name": "WinnerPicked",
      "type": "event"
    },
    {
      "inputs": [],
      "name": "enterRaffle",
      "outputs": [],
      "stateMutability": "payable",
      "type": "function"
    },
    {
      "inputs": [],
      "name": "getEntranceFee",
      "outputs": [
        {
          "internalType": "uint256",
          "name": "",
          "type": "uint256"
        }
      ],
      "stateMutability": "view",
      "type": "function"
    },
    {
      "inputs": [
        {
          "internalType": "uint256",
          "name": "index",
          "type": "uint256"
        }
      ],
      "name": "getPlayer",
      "outputs": [
        {
          "internalType": "address",
          "name": "",
          "type": "address"
        }
      ],
      "stateMutability": "view",
      "type": "function"
    },
    {
      "inputs": [],
      "name": "getRecentWinner",
      "outputs": [
        {
          "internalType": "address",
          "name": "",
          "type": "address"
        }
      ],
      "stateMutability": "view",
      "type": "function"
    },
    {
      "inputs": [
        {
          "internalType": "uint256",
          "name": "requestId",
          "type": "uint256"
        },
        {
          "internalType": "uint256[]",
          "name": "randomWords",
          "type": "uint256[]"
        }
      ],
      "name": "rawFulfillRandomWords",
      "outputs": [],
      "stateMutability": "nonpayable",
      "type": "function"
    },
    {
      "inputs": [],
      "name": "requestRandomWinner",
      "outputs": [],
      "stateMutability": "nonpayable",
      "type": "function"
    }
  ],
  "bytecode": "0x61014060405234801561001157600080fd5b50604051610e6a380380610e6a83398181016040528101906100339190610234565b848073ffffffffffffffffffffffffffffffffffffffff1660808173ffffffffffffffffffffffffffffffffffffffff1681525050508360a081815250508473ffffffffffffffffffffffffffffffffffffffff1660c08173ffffffffffffffffffffffffffffffffffffffff16815250508260e081815250508167ffffffffffffffff166101008167ffffffffffffffff16815250508063ffffffff166101208163ffffffff168152505050505050506102af565b600080fd5b600073ffffffffffffffffffffffffffffffffffffffff82169050919050565b6000610119826100ee565b9050919050565b6101298161010e565b811461013457600080fd5b50565b60008151905061014681610120565b92915050565b6000819050919050565b61015f8161014c565b811461016a57600080fd5b50565b60008151905061017c81610156565b92915050565b6000819050919050565b61019581610182565b81146101a057600080fd5b50565b6000815190506101b28161018c565b92915050565b600067ffffffffffffffff82169050919050565b6101d5816101b8565b81146101e057600080fd5b50565b6000815190506101f2816101cc565b92915050565b600063ffffffff82169050919050565b610211816101f8565b811461021c57600080fd5b50565b60008151905061022e81610208565b92915050565b600080600080600060a086880312156102505761024f6100e9565b5b600061025e88828901610137565b955050602061026f8882890161016d565b9450506040610280888289016101a3565b9350506060610291888289016101e3565b92505060806102a28882890161021f565b9150509295509295909350565b60805160a05160c05160e0516101005161012051610b5e61030c60003960006103cf015260006103ac0152600061038b0152600061034f01526000818161013b015261022101526000818161016101526101b50152610b5e6000f3fe6080604052600436106100555760003560e01c806309bc33a71461005a5780631fe543e3146100855780632cfcc539146100ae578063473f1ddc146100b8578063522a1f0b146100e3578063e55ae4e8146100fa575b600080fd5b34801561006657600080fd5b5061006f610137565b60405161007c9190610684565b60405180910390f35b34801561009157600080fd5b506100ac60048036038101906100a79190610838565b61015f565b005b6100b661021f565b005b3480156100c457600080fd5b506100cd610321565b6040516100da91906108d5565b60405180910390f35b3480156100ef57600080fd5b506100f861034b565b005b34801561010657600080fd5b50610121600480360381019061011c91906108f0565b610485565b60405161012e91906108d5565b60405180910390f35b60007f0000000000000000000000000000000000000000000000000000000000000000905090565b7f000000000000000000000000000000000000000000000000000000000000000073ffffffffffffffffffffffffffffffffffffffff163373ffffffffffffffffffffffffffffffffffffffff161461021157337f00000000000000000000000000000000000000000000000000000000000000006040517f1cf993f400000000000000000000000000000000000000000000000000000000815260040161020892919061091d565b60405180910390fd5b61021b82826104cc565b5050565b7f0000000000000000000000000000000000000000000000000000000000000000341015610279576040517fbd4e069500000000000000000000000000000000000000000000000000000000815260040160405180910390fd5b6000339080600181540180825580915050600190039060005260206000200160009091909190916101000a81548173ffffffffffffffffffffffffffffffffffffffff021916908373ffffffffffffffffffffffffffffffffffffffff1602179055503373ffffffffffffffffffffffffffffffffffffffff167f0805e1d667bddb8a95f0f09880cf94f403fb596ce79928d9f29b74203ba284d460405160405180910390a2565b6000600160009054906101000a900473ffffffffffffffffffffffffffffffffffffffff16905090565b60007f000000000000000000000000000000000000000000000000000000000000000073ffffffffffffffffffffffffffffffffffffffff16635d3b1d307f00000000000000000000000000000000000000000000000000000000000000007f000000000000000000000000000000000000000000000000000000000000000060037f000000000000000000000000000000000000000000000000000000000000000060016040518663ffffffff1660e01b81526004016104109594939291906109be565b6020604051808303816000875af115801561042f573d6000803e3d6000fd5b505050506040513d601f19601f820116820180604052508101906104539190610a26565b9050807f9f1ed633b80754d60fd8b36137a9d4080110703e220c89eb75f20fb35f2c225060405160405180910390a250565b600080828154811061049a57610499610a53565b5b9060005260206000200160009054906101000a900473ffffffffffffffffffffffffffffffffffffffff169050919050565b60008080549050826000815181106104e7576104e6610a53565b5b60200260200101516104f99190610ab1565b905060008082815481106105105761050f610a53565b5b9060005260206000200160009054906101000a900473ffffffffffffffffffffffffffffffffffffffff16905080600160006101000a81548173ffffffffffffffffffffffffffffffffffffffff021916908373ffffffffffffffffffffffffffffffffffffffff16021790555060008173ffffffffffffffffffffffffffffffffffffffff16476040516105a490610b13565b60006040518083038185875af1925050503d80600081146105e1576040519150601f19603f3d011682016040523d82523d6000602084013e6105e6565b606091505b5050905080610621576040517fba31c4f300000000000000000000000000000000000000000000000000000000815260040160405180910390fd5b8173ffffffffffffffffffffffffffffffffffffffff167f5b690ec4a06fe979403046eaeea5b3ce38524683c3001f662c8b5a829632f7df60405160405180910390a25050505050565b6000819050919050565b61067e8161066b565b82525050565b60006020820190506106996000830184610675565b92915050565b6000604051905090565b600080fd5b600080fd5b6106bc8161066b565b81146106c757600080fd5b50565b6000813590506106d9816106b3565b92915050565b600080fd5b6000601f19601f8301169050919050565b7f4e487b7100000000000000000000000000000000000000000000000000000000600052604160045260246000fd5b61072d826106e4565b810181811067ffffffffffffffff8211171561074c5761074b6106f5565b5b80604052505050565b600061075f61069f565b905061076b8282610724565b919050565b600067ffffffffffffffff82111561078b5761078a6106f5565b5b602082029050602081019050919050565b600080fd5b60006107b46107af84610770565b610755565b905080838252602082019050602084028301858111156107d7576107d661079c565b5b835b8181101561080057806107ec88826106ca565b8452602084019350506020810190506107d9565b5050509392505050565b600082601f83011261081f5761081e6106df565b5b813561082f8482602086016107a1565b91505092915050565b6000806040838503121561084f5761084e6106a9565b5b600061085d858286016106ca565b925050602083013567ffffffffffffffff81111561087e5761087d6106ae565b5b61088a8582860161080a565b9150509250929050565b600073ffffffffffffffffffffffffffffffffffffffff82169050919050565b60006108bf82610894565b9050919050565b6108cf816108b4565b82525050565b60006020820190506108ea60008301846108c6565b92915050565b600060208284031215610906576109056106a9565b5b6000610914848285016106ca565b91505092915050565b600060408201905061093260008301856108c6565b61093f60208301846108c6565b9392505050565b6000819050919050565b61095981610946565b82525050565b600067ffffffffffffffff82169050919050565b61097c8161095f565b82525050565b600061ffff82169050919050565b61099981610982565b82525050565b600063ffffffff82169050919050565b6109b88161099f565b82525050565b600060a0820190506109d36000830188610950565b6109e06020830187610973565b6109ed6040830186610990565b6109fa60608301856109af565b610a0760808301846109af565b9695505050505050565b600081519050610a20816106b3565b92915050565b600060208284031215610a3c57610a3b6106a9565b5b6000610a4a84828501610a11565b91505092915050565b7f4e487b7100000000000000000000000000000000000000000000000000000000600052603260045260246000fd5b7f4e487b7100000000000000000000000000000000000000000000000000000000600052601260045260246000fd5b6000610abc8261066b565b9150610ac78361066b565b925082610ad757610ad6610a82565b5b828206905092915050565b600081905092915050565b50565b6000610afd600083610ae2565b9150610b0882610aed565b600082019050919050565b6000610b1e82610af0565b915081905091905056fea26469706673582212206896dc6b3ebd786ec319b7c692c64a6b8cebaf19ce9e28630bc5d527c560b0a264736f6c634300081b0033",
  "linkReferences": {},
  "deployedLinkReferences": {}
}